:100000000C948E000C94AB000C94AB000C94AB00E1
:100010000C94AB000C94AB000C94AB000C94AB00B4
:100020000C94AB000C94AB000C94AB000C94DE056C
:100030000C94AB000C94AB000C94AB000C94AB0094
:100040000C94AB000C94AB000C94AB000C94AB0084
:100050000C94AB000C94AB000C94AB000C94AB0074
:100060000C94AB000C94AB000C94AB000C94AB0064
:100070000C94AB0010034C0050004B002D003000DE
:1000800030003100000014034C0069006700680074
:1000900074007000610063006B0000001C034C00E2
:1000A00069006700680074007000610063006B0005
:1000B000200044004900590000000403090409021B
:1000C0002900010100803209040000020300000041
:1000D000092111010001221A0007058103400001D6
:1000E000070502034000011201100100000008EBA7
:1000F00003382030050102030105FF0901A10115A4
:100100000026FF007508954009018102954009010C
:100110009102C04C504B2D303031000011241FBED5
:10012000CFEFD2E0DEBFCDBF11E0A0E0B1E0E6EC62
:10013000F0E102C005900D92A230B107D9F721E09D
:10014000A2E0B1E001C01D92AC3CB207E1F70E9411
:10015000FA000C9448080C94000042E361EC81E042
:100160000E94840342E360EC82E00C94840380915B
:10017000C501813019F0893011F108958091C401D1
:10018000813AB9F5E4E0F1E08EE3DF011D928A9552
:10019000E9F786E080930201109203018091E80064
:1001A000877F8093E80060E470E082E091E00E9445
:1001B000AA048091E8008B778093E80008958091ED
:1001C000C4018132B1F48091E800877F8093E80018
:1001D00060E470E082E491E00E9403058091E80011
:1001E0008E778093E80062E071E082E491E00C9405
:1001F0009B01089584B7877F84BF0FB6F894A895B4
:1002000080916000886180936000109260000FBE52
:1002100080E830E020E00FB6F894809361002093EE
:1002200061000FBE0E949901E4E0F1E08EE3DF017E
:100230001D928A95E9F787E08093020182E080931E
:1002400003010E94CE057894C2E0D1E00E94DB0752
:100250008091C3018430D1F7C093E9008091E80018
:1002600082FF13C050E040E060E470E082E491E07F
:100270000E9459048091E8008B778093E80062E047
:1002800071E082E491E00E949B01D093E9008091AB
:10029000E80080FFDBCF50E040E060E470E082E007
:1002A00091E00E9408048091E8008E778093E80036
:1002B000CDCF9C01DA01832F992783309105A1F0DE
:1002C00060F48130910581F10297D9F489E290E0E0
:1002D0002EEB30E02D933C930895829791F48AE1C0
:1002E00090E029EF30E0F6CFC90199272230C9F01C
:1002F0008330910558F4009789F0ECE9F0E001971C
:1003000049F090E080E030E020E0E4CFE4E7F0E086
:100310000397B9F7849190E09F01DCCFEAEBF0E01E
:10032000F9CFE6E8F0E0F6CF82E190E027EE30E0AA
:10033000D1CF0C945603AF92BF92CF92DF92EF923F
:10034000FF920F931F93CF93DF93CDB7DEB72A971A
:100350000FB6F894DEBF0FBECDBF8C01DB01FC01F0
:100360003081CB0101962FE3FC0111922A95E9F728
:100370003C9311961C921197EFEFE30FEF3008F0CA
:10038000F6C0F0E0E65BF74F0C94420880918201E2
:10039000882311F083E0C9C0B12C54E6C52ED12CBE
:1003A000E12CF12CD80111962C9130E044E0220F81
:1003B000331F4A95E1F7A0900001B4E6AB16B9F0FF
:1003C000C901B0E0A0E08F839887A987BA872A2D5A
:1003D00030E050E040E0BC01CD010E9407086F838F
:1003E000788789879A87A70196010E9420083A8317
:1003F0002983D80112962C9130E094E0220F331F0C
:100400009A95E1F7B4E6AB16B9F0C901B0E0A0E007
:100410008F839887A987BA872A2D30E050E040E083
:10042000BC01CD010E9407086F83788789879A876E
:10043000A70196010E9420083C832B83D8011396C4
:100440008C91282F30E084E0220F331F8A95E1F74A
:10045000B4E6AB16B9F0C901B0E0A0E08F8398878D
:10046000A987BA872A2D30E050E040E0BC01CD01D9
:100470000E9407086F83788789879A87A70196016A
:100480000E942008622F3E832D8329813A814B816F
:100490005C817E818B2D0E94CE02B3940D5F1F4F35
:1004A0009AE0B9127FCF2A960FB6F894DEBF0FBE3E
:1004B000CDBFDF91CF911F910F91FF90EF90DF9013
:1004C000CF90BF90AF900C941A032A960FB6F89471
:1004D000DEBF0FBECDBFDF91CF911F910F91FF9077
:1004E000EF90DF90CF90BF90AF900C946503D80150
:1004F00011968C91853608F084E6809300012A9647
:100500000FB6F894DEBF0FBECDBFDF91CF911F9124
:100510000F91FF90EF90DF90CF90BF90AF90089534
:1005200080918201811136CF82E011968C93E7CFC2
:1005300085E011968C93119783E012968C93DFCF10
:10054000E3E1F1E0CB010296AB01475F5F4F2491FD
:10055000DC012D93CD0131964A175B07C1F7CFCF50
:1005600081E080938201CBCF10928201C8CF84E0DA
:10057000DCCF9F702BE030E0AC01022E02C056951C
:1005800047950A94E2F740FF07C02A9A299A2998CA
:100590002150310988F708952A98F8CFCF93DF9337
:1005A00000D000D000D0CDB7DEB729833A834B838B
:1005B0005C836D837E838A3078F490E066E070E03F
:1005C0000E94F607DC01AD57BE4F86E0FE01319672
:1005D00001900D928A95E1F726960FB6F894DEBF4A
:1005E0000FBECDBFDF91CF910895CF93DF9300D0A1
:1005F00000D000D0CDB7DEB749835A836B837C83AC
:100600008D839E8383E891E026E0FE013196DC0134
:1006100001900D922A95E1F7069621E08F3B920713
:1006200099F726960FB6F894DEBF0FBECDBFDF91C7
:10063000CF9108950F931F93CF93DF9390E080E0C5
:100640000E94B902C3E8D1E08E01F80182A193A112
:100650000E94B902F801868D978D0E94B902F801B7
:1006600080A191A10E94B9020A5F1F4FF1E0013AF7
:100670001F0759F790E080E00E94B9028C819D81AC
:100680000E94B902888199810E94B9028A819B8166
:100690000E94B902269681E0C13AD80779F7289AD4
:1006A0002898DF91CF911F910F910895E3E8F1E031
:1006B0008CE3DF011D928A95E9F7229A219A209A0C
:1006C0002A98299828980C941A03CF93DF9300D086
:1006D00000D000D0CDB7DEB71A8219821C821B82EF
:1006E0001E821D8240E05A8160E07C8180E09E8114
:1006F0000E94F50226960FB6F894DEBF0FBECDBF5E
:10070000DF91CF910C941A03982F953028F08F70B9
:100710008093E90081E008959093E900242F762FDB
:1007200050E0981731F07091EC002091ED0050915D
:10073000F00021FD02C09F5FE8CF3091EB003E7FCB
:100740003093EB003091ED003D7F3093ED00309120
:10075000EB0031603093EB007093EC002093ED00E0
:100760005093F0002091EE0027FDE5CF80E0089542
:100770008091C40187FF13C08091E80082FF06C00A
:100780008091E8008B778093E80004C08091C301DA
:100790008111F2CF08958091C3018823D9F380910C
:1007A000E80080FFF8CF8091E8008E77ECCF2091B1
:1007B000E4003091E50095E6A9012091EC00822F3C
:1007C000817020FF06C08091E80080FF06C080E0B5
:1007D00008952091E80022FD1AC08091C30188236A
:1007E00089F0853089F08091EB0085FD0FC0209164
:1007F000E4003091E50042175307F9F29150E1F619
:1008000084E0089582E0089583E0089581E00895EA
:10081000AF92BF92CF92DF92FF920F931F93CF932D
:10082000DF936C01EB018A010E94D703F82E81113E
:1008300025C00115110539F0F80180819181C81B8F
:10084000D90BC80ED91EB12CA12C2097B9F08091DC
:10085000E80085FD24C08091E8008E778093E80051
:100860000E94DB0701151105A1F0F801808191813B
:10087000A80EB91EB182A08285E0F82E8F2DDF91DF
:10088000CF911F910F91FF90DF90CF90BF90AF90CD
:1008900008950E94D7038823C1F2F82EEFCFF60106
:1008A00081916F018093F1002197FFEFAF1ABF0A8A
:1008B000CCCFAF92BF92CF92DF92FF920F931F9354
:1008C000CF93DF936C01EB018A010E94D703F82ECE
:1008D000811125C00115110539F0F8018081918140
:1008E000C81BD90BC80ED91EB12CA12C2097B9F06A
:1008F0008091E80085FD24C08091E8008B7780938B
:10090000E8000E94DB0701151105A1F0F8018081C4
:100910009181A80EB91EB182A08285E0F82E8F2D9C
:10092000DF91CF911F910F91FF90DF90CF90BF90FB
:10093000AF9008950E94D7038823C1F2F82EEFCF1D
:100940008091F100F60181936F012197FFEFAF1ABB
:10095000BF0ACCCFFC01CB012091CA013091CB0161
:100960002617370790F0009729F42091E8002E779A
:100970002093E80040E0009751F4411108C08091B5
:10098000E80082FF30C080E00895C901F3CF2091D4
:10099000C3012223A1F12530A1F12091E80023FD1C
:1009A0002CC02091E80022FDEACF2091E80020FF32
:1009B000E2CF2091F20030E0009719F028303105A5
:1009C00058F041E02830310509F040E02091E8007E
:1009D0002E772093E800CFCF41914093F10001970B
:1009E0002F5F3F4FE9CF8091C301882341F08530CD
:1009F00041F08091E80083FFC2CF81E0089582E05A
:100A0000089583E00895FC01CB01009729F420911B
:100A1000E8002B772093E800009731F48091E800FC
:100A200080FF1AC080E008952091C3012223F1F0D5
:100A30002530C1F02091E80023FD16C02091E80088
:100A400022FFEACF2091F200222309F32091F10046
:100A500021930197B9F7DBCF8091C301882331F04F
:100A60008530E1F683E0089581E0089582E00895FD
:100A7000FC01CB012091CA013091CB012617370729
:100A800090F0009729F42091E8002E772093E80059
:100A900040E0009751F4411108C08091E80082FFC6
:100AA00031C080E00895C901F3CF2091C301222312
:100AB000A9F12530A9F12091E80023FD2DC0209156
:100AC000E80022FDEACF2091E80020FFE2CF20914C
:100AD000F20030E0009719F02830310558F041E07D
:100AE0002830310509F040E02091E8002E7720936E
:100AF000E800CFCF44914093F100319601972F5FEA
:100B00003F4FE8CF8091C301882341F0853041F009
:100B10008091E80083FFC1CF81E0089582E00895CD
:100B200083E008950E94D8050E94DB058091D800DB
:100B30008F778093D8008091D80080688093D80008
:100B40008091D8008F7D8093D80084E089BD86E0B5
:100B500089BD09B400FEFDCF1092C3011092BF0100
:100B60001092C1011092C00142E060E080E00E945A
:100B700084038091E1008E7F8093E1008091E20008
:100B800081608093E2008091E20088608093E200BF
:100B90008091E0008E7F8093E0000895E3E6F0E02E
:100BA00080818E7F808381E08093C2010C949205C6
:100BB0001092E20008951092E10008951F920F92A2
:100BC0000FB60F9211242F933F934F935F936F9320
:100BD0007F938F939F93AF93BF93EF93FF938091F6
:100BE000E10082FF0BC08091E20082FF07C080918C
:100BF000E1008B7F8093E1000E94DA078091E100A1
:100C000080FF19C08091E20080FF15C08091E20052
:100C10008E7F8093E2008091E20080618093E20009
:100C20008091D80080628093D80019BC85E08093C1
:100C3000C3010E94DA078091E10084FF28C08091FF
:100C4000E20084FF24C084E089BD86E089BD09B448
:100C500000FEFDCF8091D8008F7D8093D8008091D9
:100C6000E1008F7E8093E1008091E2008F7E80938F
:100C7000E2008091E20081608093E2008091BF01F8
:100C80008823F1F184E08093C3010E94DA07809108
:100C9000E10083FF24C08091E20083FF20C08091A7
:100CA000E100877F8093E10082E08093C30110928E
:100CB000BF018091E1008E7F8093E1008091E2008E
:100CC0008E7F8093E2008091E20080618093E20059
:100CD00042E060E080E00E9484030E94DA07FF9116
:100CE000EF91BF91AF919F918F917F916F915F91A4
:100CF0004F913F912F910F900FBE0F901F9018951D
:100D00008091E30087FD02C081E0BDCF83E0BBCFCF
:100D10001F93CF93DF93CDB7DEB7AA970FB6F894A2
:100D2000DEBF0FBECDBF84EC91E0FC0101962091A7
:100D3000F100208321E08C3C9207B9F70E94B700B4
:100D40008091E80083FF1EC18091C4019091C5018C
:100D50009A3008F017C1E92FF0E0E75AF74F0C94EA
:100D60004208803899F0823809F00CC18091C8019E
:100D70008F70853008F006C18093E9008091EB0008
:100D800085FB882780F91092E90006C08091C00198
:100D90009091C101911182609091E800977F9093AA
:100DA000E8008093F1001092F1008091E8008E77C6
:100DB000E5C0882309F4D3C0823009F0E3C08091F4
:100DC000C6018111D6C08091C8018F702FEF280F06
:100DD000243008F0D7C08093E9002091EB0020FF79
:100DE000C8C0933031F48091EB0080628093EB00B7
:100DF000C0C09091EB0090619093EB0021E030E057
:100E000001C0220F8A95EAF72093EA001092EA00C7
:100E10008091EB008860EACF8111B4C01091C601C7
:100E20001F778091E3008078812B8093E30080918D
:100E3000E800877F8093E8000E94B8038091E80073
:100E400080FFFCCF8091E30080688093E30082E024
:100E5000111183E08093C30195C08058823008F05F
:100E600091C08091C6019091C7018C3D23E092070B
:100E7000A1F583E08A838AE289834FB7F894DE0183
:100E8000139620E03EE051E2E32FF0E0509357004C
:100E9000E49120FF03C0E295EF703F5FEF708E2F6B
:100EA00090E0EA30C0F0C7968D939D932F5F243178
:100EB00059F74FBF8091E800877F8093E8006AE28E
:100EC00070E0CE0101960E94AA048091E8008B7721
:100ED0008093E80057C0C096E7CF6091C801709139
:100EE000C901AE014F5F5F4F0E945901BC01892BC0
:100EF00009F448C08091E800877F8093E8008981E9
:100F00009A810E943805E1CF8038E1F58091E800B0
:100F1000877F8093E8008091BF018093F10045CFE7
:100F2000811130C09091C601923060F58091E80047
:100F3000877F8093E8009093BF010E94B80380915F
:100F4000BF01882311F084E005C08091E30087FD94
:100F5000FACF81E08093C3010E94AD0013C080915D
:100F6000C601813079F481E0933009F080E080930C
:100F7000C1011092E9008091E800877F8093E8002A
:100F80000E94B8038091E80083FF0AC08091E800C6
:100F9000877F8093E8008091EB0080628093EB0074
:100FA000AA960FB6F894DEBF0FBECDBFDF91CF91EA
:100FB0001F9108950895CF938091C3018823A1F0D4
:100FC000C091E900CF709091EC00892F817090FD65
:100FD00080E8C82B1092E9008091E80083FD0E9410
:100FE0008806CF70C093E900CF910895002455275B
:100FF00004C0080E591F880F991F009729F0769595
:101000006795B8F37105B9F7802D952F0895EE27F0
:10101000FF27AA27BB2708C0A20FB31FE41FF51F95
:10102000220F331F441F551F969587957795679517
:1010300098F37040A9F7009799F7BD01CF01089583
:10104000A1E21A2EAA1BBB1BFD010DC0AA1FBB1FCC
:10105000EE1FFF1FA217B307E407F50720F0A21B3E
:10106000B30BE40BF50B661F771F881F991F1A94AB
:1010700069F760957095809590959B01AC01BD01D5
:10108000CF010895EE0FFF1F0590F491E02D099414
:10109000F894FFCFC6016502B702B70277027F025C
:1010A00090029802A002B702B702B702B002B402DF
:1010B0007F02B106D906C207D906C2070C072D0761
:0610C000C207840790073F
:0210C6006400C4
:00000001FF
